{
  "_format": "hh-sol-artifact-1",
  "contractName": "NFTMarketplace",
  "sourceName": "contracts/NFTMarketplace.sol",
  "abi": [
    {
      "inputs": [],
      "stateMutability": "nonpayable",
      "type": "constructor"
    },
    {
      "anonymous": false,
      "inputs": [
        {
          "indexed": true,
          "internalType": "address",
          "name": "owner",
          "type": "address"
        },
        {
          "indexed": true,
          "internalType": "address",
          "name": "approved",
          "type": "address"
        },
        {
          "indexed": true,
          "internalType": "uint256",
          "name": "tokenId",
          "type": "uint256"
        }
      ],
      "name": "Approval",
      "type": "event"
    },
    {
      "anonymous": false,
      "inputs": [
        {
          "indexed": true,
          "internalType": "address",
          "name": "owner",
          "type": "address"
        },
        {
          "indexed": true,
          "internalType": "address",
          "name": "operator",
          "type": "address"
        },
        {
          "indexed": false,
          "internalType": "bool",
          "name": "approved",
          "type": "bool"
        }
      ],
      "name": "ApprovalForAll",
      "type": "event"
    },
    {
      "anonymous": false,
      "inputs": [
        {
          "indexed": true,
          "internalType": "uint256",
          "name": "tokenId",
          "type": "uint256"
        },
        {
          "indexed": false,
          "internalType": "address",
          "name": "owner",
          "type": "address"
        },
        {
          "indexed": false,
          "internalType": "address",
          "name": "seller",
          "type": "address"
        },
        {
          "indexed": false,
          "internalType": "uint256",
          "name": "price",
          "type": "uint256"
        },
        {
          "indexed": false,
          "internalType": "bool",
          "name": "currentlyListed",
          "type": "bool"
        }
      ],
      "name": "TokenListedSuccess",
      "type": "event"
    },
    {
      "anonymous": false,
      "inputs": [
        {
          "indexed": true,
          "internalType": "address",
          "name": "from",
          "type": "address"
        },
        {
          "indexed": true,
          "internalType": "address",
          "name": "to",
          "type": "address"
        },
        {
          "indexed": true,
          "internalType": "uint256",
          "name": "tokenId",
          "type": "uint256"
        }
      ],
      "name": "Transfer",
      "type": "event"
    },
    {
      "inputs": [
        {
          "internalType": "address",
          "name": "to",
          "type": "address"
        },
        {
          "internalType": "uint256",
          "name": "tokenId",
          "type": "uint256"
        }
      ],
      "name": "approve",
      "outputs": [],
      "stateMutability": "nonpayable",
      "type": "function"
    },
    {
      "inputs": [
        {
          "internalType": "address",
          "name": "owner",
          "type": "address"
        }
      ],
      "name": "balanceOf",
      "outputs": [
        {
          "internalType": "uint256",
          "name": "",
          "type": "uint256"
        }
      ],
      "stateMutability": "view",
      "type": "function"
    },
    {
      "inputs": [
        {
          "internalType": "string",
          "name": "tokenURI",
          "type": "string"
        },
        {
          "internalType": "uint256",
          "name": "price",
          "type": "uint256"
        }
      ],
      "name": "createToken",
      "outputs": [
        {
          "internalType": "uint256",
          "name": "",
          "type": "uint256"
        }
      ],
      "stateMutability": "payable",
      "type": "function"
    },
    {
      "inputs": [
        {
          "internalType": "uint256",
          "name": "tokenId",
          "type": "uint256"
        }
      ],
      "name": "executeSale",
      "outputs": [],
      "stateMutability": "payable",
      "type": "function"
    },
    {
      "inputs": [],
      "name": "getAllNFTs",
      "outputs": [
        {
          "components": [
            {
              "internalType": "uint256",
              "name": "tokenId",
              "type": "uint256"
            },
            {
              "internalType": "address payable",
              "name": "owner",
              "type": "address"
            },
            {
              "internalType": "address payable",
              "name": "seller",
              "type": "address"
            },
            {
              "internalType": "uint256",
              "name": "price",
              "type": "uint256"
            },
            {
              "internalType": "bool",
              "name": "currentlyListed",
              "type": "bool"
            }
          ],
          "internalType": "struct NFTMarketplace.ListedToken[]",
          "name": "",
          "type": "tuple[]"
        }
      ],
      "stateMutability": "view",
      "type": "function"
    },
    {
      "inputs": [
        {
          "internalType": "uint256",
          "name": "tokenId",
          "type": "uint256"
        }
      ],
      "name": "getApproved",
      "outputs": [
        {
          "internalType": "address",
          "name": "",
          "type": "address"
        }
      ],
      "stateMutability": "view",
      "type": "function"
    },
    {
      "inputs": [],
      "name": "getCurrentToken",
      "outputs": [
        {
          "internalType": "uint256",
          "name": "",
          "type": "uint256"
        }
      ],
      "stateMutability": "view",
      "type": "function"
    },
    {
      "inputs": [],
      "name": "getLatestIdToListedToken",
      "outputs": [
        {
          "components": [
            {
              "internalType": "uint256",
              "name": "tokenId",
              "type": "uint256"
            },
            {
              "internalType": "address payable",
              "name": "owner",
              "type": "address"
            },
            {
              "internalType": "address payable",
              "name": "seller",
              "type": "address"
            },
            {
              "internalType": "uint256",
              "name": "price",
              "type": "uint256"
            },
            {
              "internalType": "bool",
              "name": "currentlyListed",
              "type": "bool"
            }
          ],
          "internalType": "struct NFTMarketplace.ListedToken",
          "name": "",
          "type": "tuple"
        }
      ],
      "stateMutability": "view",
      "type": "function"
    },
    {
      "inputs": [],
      "name": "getListPrice",
      "outputs": [
        {
          "internalType": "uint256",
          "name": "",
          "type": "uint256"
        }
      ],
      "stateMutability": "view",
      "type": "function"
    },
    {
      "inputs": [
        {
          "internalType": "uint256",
          "name": "tokenId",
          "type": "uint256"
        }
      ],
      "name": "getListedTokenForId",
      "outputs": [
        {
          "components": [
            {
              "internalType": "uint256",
              "name": "tokenId",
              "type": "uint256"
            },
            {
              "internalType": "address payable",
              "name": "owner",
              "type": "address"
            },
            {
              "internalType": "address payable",
              "name": "seller",
              "type": "address"
            },
            {
              "internalType": "uint256",
              "name": "price",
              "type": "uint256"
            },
            {
              "internalType": "bool",
              "name": "currentlyListed",
              "type": "bool"
            }
          ],
          "internalType": "struct NFTMarketplace.ListedToken",
          "name": "",
          "type": "tuple"
        }
      ],
      "stateMutability": "view",
      "type": "function"
    },
    {
      "inputs": [],
      "name": "getMyNFTs",
      "outputs": [
        {
          "components": [
            {
              "internalType": "uint256",
              "name": "tokenId",
              "type": "uint256"
            },
            {
              "internalType": "address payable",
              "name": "owner",
              "type": "address"
            },
            {
              "internalType": "address payable",
              "name": "seller",
              "type": "address"
            },
            {
              "internalType": "uint256",
              "name": "price",
              "type": "uint256"
            },
            {
              "internalType": "bool",
              "name": "currentlyListed",
              "type": "bool"
            }
          ],
          "internalType": "struct NFTMarketplace.ListedToken[]",
          "name": "",
          "type": "tuple[]"
        }
      ],
      "stateMutability": "view",
      "type": "function"
    },
    {
      "inputs": [
        {
          "internalType": "address",
          "name": "owner",
          "type": "address"
        },
        {
          "internalType": "address",
          "name": "operator",
          "type": "address"
        }
      ],
      "name": "isApprovedForAll",
      "outputs": [
        {
          "internalType": "bool",
          "name": "",
          "type": "bool"
        }
      ],
      "stateMutability": "view",
      "type": "function"
    },
    {
      "inputs": [],
      "name": "name",
      "outputs": [
        {
          "internalType": "string",
          "name": "",
          "type": "string"
        }
      ],
      "stateMutability": "view",
      "type": "function"
    },
    {
      "inputs": [
        {
          "internalType": "uint256",
          "name": "tokenId",
          "type": "uint256"
        }
      ],
      "name": "ownerOf",
      "outputs": [
        {
          "internalType": "address",
          "name": "",
          "type": "address"
        }
      ],
      "stateMutability": "view",
      "type": "function"
    },
    {
      "inputs": [
        {
          "internalType": "address",
          "name": "from",
          "type": "address"
        },
        {
          "internalType": "address",
          "name": "to",
          "type": "address"
        },
        {
          "internalType": "uint256",
          "name": "tokenId",
          "type": "uint256"
        }
      ],
      "name": "safeTransferFrom",
      "outputs": [],
      "stateMutability": "nonpayable",
      "type": "function"
    },
    {
      "inputs": [
        {
          "internalType": "address",
          "name": "from",
          "type": "address"
        },
        {
          "internalType": "address",
          "name": "to",
          "type": "address"
        },
        {
          "internalType": "uint256",
          "name": "tokenId",
          "type": "uint256"
        },
        {
          "internalType": "bytes",
          "name": "data",
          "type": "bytes"
        }
      ],
      "name": "safeTransferFrom",
      "outputs": [],
      "stateMutability": "nonpayable",
      "type": "function"
    },
    {
      "inputs": [
        {
          "internalType": "address",
          "name": "operator",
          "type": "address"
        },
        {
          "internalType": "bool",
          "name": "approved",
          "type": "bool"
        }
      ],
      "name": "setApprovalForAll",
      "outputs": [],
      "stateMutability": "nonpayable",
      "type": "function"
    },
    {
      "inputs": [
        {
          "internalType": "bytes4",
          "name": "interfaceId",
          "type": "bytes4"
        }
      ],
      "name": "supportsInterface",
      "outputs": [
        {
          "internalType": "bool",
          "name": "",
          "type": "bool"
        }
      ],
      "stateMutability": "view",
      "type": "function"
    },
    {
      "inputs": [],
      "name": "symbol",
      "outputs": [
        {
          "internalType": "string",
          "name": "",
          "type": "string"
        }
      ],
      "stateMutability": "view",
      "type": "function"
    },
    {
      "inputs": [
        {
          "internalType": "uint256",
          "name": "tokenId",
          "type": "uint256"
        }
      ],
      "name": "tokenURI",
      "outputs": [
        {
          "internalType": "string",
          "name": "",
          "type": "string"
        }
      ],
      "stateMutability": "view",
      "type": "function"
    },
    {
      "inputs": [
        {
          "internalType": "address",
          "name": "from",
          "type": "address"
        },
        {
          "internalType": "address",
          "name": "to",
          "type": "address"
        },
        {
          "internalType": "uint256",
          "name": "tokenId",
          "type": "uint256"
        }
      ],
      "name": "transferFrom",
      "outputs": [],
      "stateMutability": "nonpayable",
      "type": "function"
    },
    {
      "inputs": [
        {
          "internalType": "uint256",
          "name": "_listPrice",
          "type": "uint256"
        }
      ],
      "name": "updateListPrice",
      "outputs": [],
      "stateMutability": "payable",
      "type": "function"
    }
  ],
  "bytecode": "0x6080604052662386f26fc10000600a553480156200001c57600080fd5b506040518060400160405280600e81526020017f4e46544d61726b6574706c6163650000000000000000000000000000000000008152506040518060400160405280600481526020017f4e46544d000000000000000000000000000000000000000000000000000000008152508160009080519060200190620000a192919062000104565b508060019080519060200190620000ba92919062000104565b50505033600960006101000a81548173ffffffffffffffffffffffffffffffffffffffff021916908373ffffffffffffffffffffffffffffffffffffffff16021790555062000219565b8280546200011290620001b4565b90600052602060002090601f01602090048101928262000136576000855562000182565b82601f106200015157805160ff191683800117855562000182565b8280016001018555821562000182579182015b828111156200018157825182559160200191906001019062000164565b5b50905062000191919062000195565b5090565b5b80821115620001b057600081600090555060010162000196565b5090565b60006002820490506001821680620001cd57607f821691505b60208210811415620001e457620001e3620001ea565b5b50919050565b7f4e487b7100000000000000000000000000000000000000000000000000000000600052602260045260246000fd5b613d2b80620002296000396000f3fe6080604052600436106101355760003560e01c80638e264590116100ab578063c322579c1161006f578063c322579c14610430578063c87b56dd1461044c578063d1a88ae514610489578063e0391b09146104b4578063e985e9c5146104df578063ef2d17461461051c57610135565b80638e2645901461035a57806395d89b41146103975780639b1225c4146103c2578063a22cb465146103de578063b88d4fde1461040757610135565b806342842e0e116100fd57806342842e0e14610231578063629cb2e41461025a5780636352211e1461028557806368f1945f146102c257806370a08231146102ed57806372b3b6201461032a57610135565b806301ffc9a71461013a57806306fdde0314610177578063081812fc146101a2578063095ea7b3146101df57806323b872dd14610208575b600080fd5b34801561014657600080fd5b50610161600480360381019061015c9190612b6a565b610547565b60405161016e919061319e565b60405180910390f35b34801561018357600080fd5b5061018c610629565b60405161019991906131b9565b60405180910390f35b3480156101ae57600080fd5b506101c960048036038101906101c49190612c10565b6106bb565b6040516101d691906130d0565b60405180910390f35b3480156101eb57600080fd5b5061020660048036038101906102019190612b2e565b610701565b005b34801561021457600080fd5b5061022f600480360381019061022a9190612a28565b610819565b005b34801561023d57600080fd5b5061025860048036038101906102539190612a28565b610879565b005b34801561026657600080fd5b5061026f610899565b60405161027c919061317c565b60405180910390f35b34801561029157600080fd5b506102ac60048036038101906102a79190612c10565b610cc6565b6040516102b991906130d0565b60405180910390f35b3480156102ce57600080fd5b506102d7610d78565b6040516102e491906133f6565b60405180910390f35b3480156102f957600080fd5b50610314600480360381019061030f91906129c3565b610d82565b60405161032191906133f6565b60405180910390f35b610344600480360381019061033f9190612bbc565b610e3a565b60405161035191906133f6565b60405180910390f35b34801561036657600080fd5b50610381600480360381019061037c9190612c10565b610e7c565b60405161038e91906133db565b60405180910390f35b3480156103a357600080fd5b506103ac610f84565b6040516103b991906131b9565b60405180910390f35b6103dc60048036038101906103d79190612c10565b611016565b005b3480156103ea57600080fd5b5061040560048036038101906104009190612af2565b611208565b005b34801561041357600080fd5b5061042e60048036038101906104299190612a77565b61121e565b005b61044a60048036038101906104459190612c10565b611280565b005b34801561045857600080fd5b50610473600480360381019061046e9190612c10565b61131a565b60405161048091906131b9565b60405180910390f35b34801561049557600080fd5b5061049e61142d565b6040516104ab91906133db565b60405180910390f35b3480156104c057600080fd5b506104c9611542565b6040516104d6919061317c565b60405180910390f35b3480156104eb57600080fd5b50610506600480360381019061050191906129ec565b611760565b604051610513919061319e565b60405180910390f35b34801561052857600080fd5b506105316117f4565b60405161053e91906133f6565b60405180910390f35b60007f80ac58cd000000000000000000000000000000000000000000000000000000007bffffffffffffffffffffffffffffffffffffffffffffffffffffffff1916827bffffffffffffffffffffffffffffffffffffffffffffffffffffffff1916148061061257507f5b5e139f000000000000000000000000000000000000000000000000000000007bffffffffffffffffffffffffffffffffffffffffffffffffffffffff1916827bffffffffffffffffffffffffffffffffffffffffffffffffffffffff1916145b80610622575061062182611805565b5b9050919050565b60606000805461063890613697565b80601f016020809104026020016040519081016040528092919081815260200182805461066490613697565b80156106b15780601f10610686576101008083540402835291602001916106b1565b820191906000526020600020905b81548152906001019060200180831161069457829003601f168201915b5050505050905090565b60006106c68261186f565b6004600083815260200190815260200160002060009054906101000a900473ffffffffffffffffffffffffffffffffffffffff169050919050565b600061070c82610cc6565b90508073ffffffffffffffffffffffffffffffffffffffff168373ffffffffffffffffffffffffffffffffffffffff16141561077d576040517f08c379a00000000000000000000000000000000000000000000000000000000081526004016107749061337b565b60405180910390fd5b8073ffffffffffffffffffffffffffffffffffffffff1661079c6118ba565b73ffffffffffffffffffffffffffffffffffffffff1614806107cb57506107ca816107c56118ba565b611760565b5b61080a576040517f08c379a0000000000000000000000000000000000000000000000000000000008152600401610801906132fb565b60405180910390fd5b61081483836118c2565b505050565b61082a6108246118ba565b8261197b565b610869576040517f08c379a0000000000000000000000000000000000000000000000000000000008152600401610860906133bb565b60405180910390fd5b610874838383611a10565b505050565b6108948383836040518060200160405280600081525061121e565b505050565b606060006108a76007611c77565b9050600080600080600090505b848110156109cd573373ffffffffffffffffffffffffffffffffffffffff16600b60006001846108e49190613514565b815260200190815260200160002060010160009054906101000a900473ffffffffffffffffffffffffffffffffffffffff1673ffffffffffffffffffffffffffffffffffffffff1614806109a557503373ffffffffffffffffffffffffffffffffffffffff16600b600060018461095b9190613514565b815260200190815260200160002060020160009054906101000a900473ffffffffffffffffffffffffffffffffffffffff1673ffffffffffffffffffffffffffffffffffffffff16145b156109ba576001846109b79190613514565b93505b80806109c5906136fa565b9150506108b4565b5060008367ffffffffffffffff811115610a10577f4e487b7100000000000000000000000000000000000000000000000000000000600052604160045260246000fd5b604051908082528060200260200182016040528015610a4957816020015b610a3661278a565b815260200190600190039081610a2e5790505b50905060005b85811015610cba573373ffffffffffffffffffffffffffffffffffffffff16600b6000600184610a7f9190613514565b815260200190815260200160002060010160009054906101000a900473ffffffffffffffffffffffffffffffffffffffff1673ffffffffffffffffffffffffffffffffffffffff161480610b4057503373ffffffffffffffffffffffffffffffffffffffff16600b6000600184610af69190613514565b815260200190815260200160002060020160009054906101000a900473ffffffffffffffffffffffffffffffffffffffff1673ffffffffffffffffffffffffffffffffffffffff16145b15610ca757600181610b529190613514565b92506000600b60008581526020019081526020016000209050806040518060a0016040529081600082015481526020016001820160009054906101000a900473ffffffffffffffffffffffffffffffffffffffff1673ffffffffffffffffffffffffffffffffffffffff1673ffffffffffffffffffffffffffffffffffffffff1681526020016002820160009054906101000a900473ffffffffffffffffffffffffffffffffffffffff1673ffffffffffffffffffffffffffffffffffffffff1673ffffffffffffffffffffffffffffffffffffffff168152602001600382015481526020016004820160009054906101000a900460ff161515151581525050838681518110610c8b577f4e487b7100000000000000000000000000000000000000000000000000000000600052603260045260246000fd5b6020026020010181905250600185610ca39190613514565b9450505b8080610cb2906136fa565b915050610a4f565b50809550505050505090565b6000806002600084815260200190815260200160002060009054906101000a900473ffffffffffffffffffffffffffffffffffffffff169050600073ffffffffffffffffffffffffffffffffffffffff168173ffffffffffffffffffffffffffffffffffffffff161415610d6f576040517f08c379a0000000000000000000000000000000000000000000000000000000008152600401610d669061335b565b60405180910390fd5b80915050919050565b6000600a54905090565b60008073ffffffffffffffffffffffffffffffffffffffff168273ffffffffffffffffffffffffffffffffffffffff161415610df3576040517f08c379a0000000000000000000000000000000000000000000000000000000008152600401610dea9061329b565b60405180910390fd5b600360008373ffffffffffffffffffffffffffffffffffffffff1673ffffffffffffffffffffffffffffffffffffffff168152602001908152602001600020549050919050565b6000610e466007611c85565b6000610e526007611c77565b9050610e5e3382611c9b565b610e688185611cb9565b610e728184611d2d565b8091505092915050565b610e8461278a565b600b60008381526020019081526020016000206040518060a0016040529081600082015481526020016001820160009054906101000a900473ffffffffffffffffffffffffffffffffffffffff1673ffffffffffffffffffffffffffffffffffffffff1673ffffffffffffffffffffffffffffffffffffffff1681526020016002820160009054906101000a900473ffffffffffffffffffffffffffffffffffffffff1673ffffffffffffffffffffffffffffffffffffffff1673ffffffffffffffffffffffffffffffffffffffff168152602001600382015481526020016004820160009054906101000a900460ff1615151515815250509050919050565b606060018054610f9390613697565b80601f0160208091040260200160405190810160405280929190818152602001828054610fbf90613697565b801561100c5780601f10610fe15761010080835404028352916020019161100c565b820191906000526020600020905b815481529060010190602001808311610fef57829003601f168201915b5050505050905090565b6000600b60008381526020019081526020016000206003015490506000600b600084815260200190815260200160002060020160009054906101000a900473ffffffffffffffffffffffffffffffffffffffff1690508134146110ae576040517f08c379a00000000000000000000000000000000000000000000000000000000081526004016110a5906132db565b60405180910390fd5b6001600b600085815260200190815260200160002060040160006101000a81548160ff02191690831515021790555033600b600085815260200190815260200160002060020160006101000a81548173ffffffffffffffffffffffffffffffffffffffff021916908373ffffffffffffffffffffffffffffffffffffffff16021790555061113c6008611c85565b611147303385611a10565b6111513084610701565b600960009054906101000a900473ffffffffffffffffffffffffffffffffffffffff1673ffffffffffffffffffffffffffffffffffffffff166108fc600a549081150290604051600060405180830381858888f193505050501580156111bb573d6000803e3d6000fd5b508073ffffffffffffffffffffffffffffffffffffffff166108fc349081150290604051600060405180830381858888f19350505050158015611202573d6000803e3d6000fd5b50505050565b61121a6112136118ba565b8383611f30565b5050565b61122f6112296118ba565b8361197b565b61126e576040517f08c379a0000000000000000000000000000000000000000000000000000000008152600401611265906133bb565b60405180910390fd5b61127a8484848461209d565b50505050565b3373ffffffffffffffffffffffffffffffffffffffff16600960009054906101000a900473ffffffffffffffffffffffffffffffffffffffff1673ffffffffffffffffffffffffffffffffffffffff1614611310576040517f08c379a00000000000000000000000000000000000000000000000000000000081526004016113079061327b565b60405180910390fd5b80600a8190555050565b60606113258261186f565b600060066000848152602001908152602001600020805461134590613697565b80601f016020809104026020016040519081016040528092919081815260200182805461137190613697565b80156113be5780601f10611393576101008083540402835291602001916113be565b820191906000526020600020905b8154815290600101906020018083116113a157829003601f168201915b5050505050905060006113cf6120f9565b90506000815114156113e5578192505050611428565b60008251111561141a5780826040516020016114029291906130ac565b60405160208183030381529060405292505050611428565b61142384612110565b925050505b919050565b61143561278a565b60006114416007611c77565b9050600b60008281526020019081526020016000206040518060a0016040529081600082015481526020016001820160009054906101000a900473ffffffffffffffffffffffffffffffffffffffff1673ffffffffffffffffffffffffffffffffffffffff1673ffffffffffffffffffffffffffffffffffffffff1681526020016002820160009054906101000a900473ffffffffffffffffffffffffffffffffffffffff1673ffffffffffffffffffffffffffffffffffffffff1673ffffffffffffffffffffffffffffffffffffffff168152602001600382015481526020016004820160009054906101000a900460ff16151515158152505091505090565b606060006115506007611c77565b905060008167ffffffffffffffff811115611594577f4e487b7100000000000000000000000000000000000000000000000000000000600052604160045260246000fd5b6040519080825280602002602001820160405280156115cd57816020015b6115ba61278a565b8152602001906001900390816115b25790505b50905060008080600090505b84811015611755576001816115ee9190613514565b91506000600b60008481526020019081526020016000209050806040518060a0016040529081600082015481526020016001820160009054906101000a900473ffffffffffffffffffffffffffffffffffffffff1673ffffffffffffffffffffffffffffffffffffffff1673ffffffffffffffffffffffffffffffffffffffff1681526020016002820160009054906101000a900473ffffffffffffffffffffffffffffffffffffffff1673ffffffffffffffffffffffffffffffffffffffff1673ffffffffffffffffffffffffffffffffffffffff168152602001600382015481526020016004820160009054906101000a900460ff161515151581525050858581518110611727577f4e487b7100000000000000000000000000000000000000000000000000000000600052603260045260246000fd5b602002602001018190525060018461173f9190613514565b935050808061174d906136fa565b9150506115d9565b508294505050505090565b6000600560008473ffffffffffffffffffffffffffffffffffffffff1673ffffffffffffffffffffffffffffffffffffffff16815260200190815260200160002060008373ffffffffffffffffffffffffffffffffffffffff1673ffffffffffffffffffffffffffffffffffffffff16815260200190815260200160002060009054906101000a900460ff16905092915050565b60006118006007611c77565b905090565b60007f01ffc9a7000000000000000000000000000000000000000000000000000000007bffffffffffffffffffffffffffffffffffffffffffffffffffffffff1916827bffffffffffffffffffffffffffffffffffffffffffffffffffffffff1916149050919050565b61187881612178565b6118b7576040517f08c379a00000000000000000000000000000000000000000000000000000000081526004016118ae9061335b565b60405180910390fd5b50565b600033905090565b816004600083815260200190815260200160002060006101000a81548173ffffffffffffffffffffffffffffffffffffffff021916908373ffffffffffffffffffffffffffffffffffffffff160217905550808273ffffffffffffffffffffffffffffffffffffffff1661193583610cc6565b73ffffffffffffffffffffffffffffffffffffffff167f8c5be1e5ebec7d5bd14f71427d1e84f3dd0314c0f7b2291e5b200ac8c7c3b92560405160405180910390a45050565b60008061198783610cc6565b90508073ffffffffffffffffffffffffffffffffffffffff168473ffffffffffffffffffffffffffffffffffffffff1614806119c957506119c88185611760565b5b80611a0757508373ffffffffffffffffffffffffffffffffffffffff166119ef846106bb565b73ffffffffffffffffffffffffffffffffffffffff16145b91505092915050565b8273ffffffffffffffffffffffffffffffffffffffff16611a3082610cc6565b73ffffffffffffffffffffffffffffffffffffffff1614611a86576040517f08c379a0000000000000000000000000000000000000000000000000000000008152600401611a7d906131fb565b60405180910390fd5b600073ffffffffffffffffffffffffffffffffffffffff168273ffffffffffffffffffffffffffffffffffffffff161415611af6576040517f08c379a0000000000000000000000000000000000000000000000000000000008152600401611aed9061323b565b60405180910390fd5b611b018383836121e4565b611b0c6000826118c2565b6001600360008573ffffffffffffffffffffffffffffffffffffffff1673ffffffffffffffffffffffffffffffffffffffff1681526020019081526020016000206000828254611b5c919061359b565b925050819055506001600360008473ffffffffffffffffffffffffffffffffffffffff1673ffffffffffffffffffffffffffffffffffffffff1681526020019081526020016000206000828254611bb39190613514565b92505081905550816002600083815260200190815260200160002060006101000a81548173ffffffffffffffffffffffffffffffffffffffff021916908373ffffffffffffffffffffffffffffffffffffffff160217905550808273ffffffffffffffffffffffffffffffffffffffff168473ffffffffffffffffffffffffffffffffffffffff167fddf252ad1be2c89b69c2b068fc378daa952ba7f163c4a11628f55a4df523b3ef60405160405180910390a4611c728383836121e9565b505050565b600081600001549050919050565b6001816000016000828254019250508190555050565b611cb58282604051806020016040528060008152506121ee565b5050565b611cc282612178565b611d01576040517f08c379a0000000000000000000000000000000000000000000000000000000008152600401611cf8906132bb565b60405180910390fd5b80600660008481526020019081526020016000209080519060200190611d289291906127e7565b505050565b600a543414611d71576040517f08c379a0000000000000000000000000000000000000000000000000000000008152600401611d689061333b565b60405180910390fd5b60008111611db4576040517f08c379a0000000000000000000000000000000000000000000000000000000008152600401611dab9061339b565b60405180910390fd5b6040518060a001604052808381526020013073ffffffffffffffffffffffffffffffffffffffff1681526020013373ffffffffffffffffffffffffffffffffffffffff16815260200182815260200160011515815250600b60008481526020019081526020016000206000820151816000015560208201518160010160006101000a81548173ffffffffffffffffffffffffffffffffffffffff021916908373ffffffffffffffffffffffffffffffffffffffff16021790555060408201518160020160006101000a81548173ffffffffffffffffffffffffffffffffffffffff021916908373ffffffffffffffffffffffffffffffffffffffff1602179055506060820151816003015560808201518160040160006101000a81548160ff021916908315150217905550905050611eed333084611a10565b817f9339409317fd01fabff48b703019016f49159bacc801ae872d2ca637d226e4c03033846001604051611f2494939291906130eb565b60405180910390a25050565b8173ffffffffffffffffffffffffffffffffffffffff168373ffffffffffffffffffffffffffffffffffffffff161415611f9f576040517f08c379a0000000000000000000000000000000000000000000000000000000008152600401611f969061325b565b60405180910390fd5b80600560008573ffffffffffffffffffffffffffffffffffffffff1673ffffffffffffffffffffffffffffffffffffffff16815260200190815260200160002060008473ffffffffffffffffffffffffffffffffffffffff1673ffffffffffffffffffffffffffffffffffffffff16815260200190815260200160002060006101000a81548160ff0219169083151502179055508173ffffffffffffffffffffffffffffffffffffffff168373ffffffffffffffffffffffffffffffffffffffff167f17307eab39ab6107e8899845ad3d59bd9653f200f220920489ca2b5937696c3183604051612090919061319e565b60405180910390a3505050565b6120a8848484611a10565b6120b484848484612249565b6120f3576040517f08c379a00000000000000000000000000000000000000000000000000000000081526004016120ea906131db565b60405180910390fd5b50505050565b606060405180602001604052806000815250905090565b606061211b8261186f565b60006121256120f9565b905060008151116121455760405180602001604052806000815250612170565b8061214f846123e0565b6040516020016121609291906130ac565b6040516020818303038152906040525b915050919050565b60008073ffffffffffffffffffffffffffffffffffffffff166002600084815260200190815260200160002060009054906101000a900473ffffffffffffffffffffffffffffffffffffffff1673ffffffffffffffffffffffffffffffffffffffff1614159050919050565b505050565b505050565b6121f8838361258d565b6122056000848484612249565b612244576040517f08c379a000000000000000000000000000000000000000000000000000000000815260040161223b906131db565b60405180910390fd5b505050565b600061226a8473ffffffffffffffffffffffffffffffffffffffff16612767565b156123d3578373ffffffffffffffffffffffffffffffffffffffff1663150b7a026122936118ba565b8786866040518563ffffffff1660e01b81526004016122b59493929190613130565b602060405180830381600087803b1580156122cf57600080fd5b505af192505050801561230057506040513d601f19601f820116820180604052508101906122fd9190612b93565b60015b612383573d8060008114612330576040519150601f19603f3d011682016040523d82523d6000602084013e612335565b606091505b5060008151141561237b576040517f08c379a0000000000000000000000000000000000000000000000000000000008152600401612372906131db565b60405180910390fd5b805181602001fd5b63150b7a0260e01b7bffffffffffffffffffffffffffffffffffffffffffffffffffffffff1916817bffffffffffffffffffffffffffffffffffffffffffffffffffffffff1916149150506123d8565b600190505b949350505050565b60606000821415612428576040518060400160405280600181526020017f30000000000000000000000000000000000000000000000000000000000000008152509050612588565b600082905060005b6000821461245a578080612443906136fa565b915050600a82612453919061356a565b9150612430565b60008167ffffffffffffffff81111561249c577f4e487b7100000000000000000000000000000000000000000000000000000000600052604160045260246000fd5b6040519080825280601f01601f1916602001820160405280156124ce5781602001600182028036833780820191505090505b5090505b60008514612581576001826124e7919061359b565b9150600a856124f69190613743565b60306125029190613514565b60f81b81838151811061253e577f4e487b7100000000000000000000000000000000000000000000000000000000600052603260045260246000fd5b60200101907effffffffffffffffffffffffffffffffffffffffffffffffffffffffffffff1916908160001a905350600a8561257a919061356a565b94506124d2565b8093505050505b919050565b600073ffffffffffffffffffffffffffffffffffffffff168273ffffffffffffffffffffffffffffffffffffffff1614156125fd576040517f08c379a00000000000000000000000000000000000000000000000000000000081526004016125f49061331b565b60405180910390fd5b61260681612178565b15612646576040517f08c379a000000000000000000000000000000000000000000000000000000000815260040161263d9061321b565b60405180910390fd5b612652600083836121e4565b6001600360008473ffffffffffffffffffffffffffffffffffffffff1673ffffffffffffffffffffffffffffffffffffffff16815260200190815260200160002060008282546126a29190613514565b92505081905550816002600083815260200190815260200160002060006101000a81548173ffffffffffffffffffffffffffffffffffffffff021916908373ffffffffffffffffffffffffffffffffffffffff160217905550808273ffffffffffffffffffffffffffffffffffffffff16600073ffffffffffffffffffffffffffffffffffffffff167fddf252ad1be2c89b69c2b068fc378daa952ba7f163c4a11628f55a4df523b3ef60405160405180910390a4612763600083836121e9565b5050565b6000808273ffffffffffffffffffffffffffffffffffffffff163b119050919050565b6040518060a0016040528060008152602001600073ffffffffffffffffffffffffffffffffffffffff168152602001600073ffffffffffffffffffffffffffffffffffffffff168152602001600081526020016000151581525090565b8280546127f390613697565b90600052602060002090601f016020900481019282612815576000855561285c565b82601f1061282e57805160ff191683800117855561285c565b8280016001018555821561285c579182015b8281111561285b578251825591602001919060010190612840565b5b509050612869919061286d565b5090565b5b8082111561288657600081600090555060010161286e565b5090565b600061289d61289884613436565b613411565b9050828152602081018484840111156128b557600080fd5b6128c0848285613655565b509392505050565b60006128db6128d684613467565b613411565b9050828152602081018484840111156128f357600080fd5b6128fe848285613655565b509392505050565b60008135905061291581613c99565b92915050565b60008135905061292a81613cb0565b92915050565b60008135905061293f81613cc7565b92915050565b60008151905061295481613cc7565b92915050565b600082601f83011261296b57600080fd5b813561297b84826020860161288a565b91505092915050565b600082601f83011261299557600080fd5b81356129a58482602086016128c8565b91505092915050565b6000813590506129bd81613cde565b92915050565b6000602082840312156129d557600080fd5b60006129e384828501612906565b91505092915050565b600080604083850312156129ff57600080fd5b6000612a0d85828601612906565b9250506020612a1e85828601612906565b9150509250929050565b600080600060608486031215612a3d57600080fd5b6000612a4b86828701612906565b9350506020612a5c86828701612906565b9250506040612a6d868287016129ae565b9150509250925092565b60008060008060808587031215612a8d57600080fd5b6000612a9b87828801612906565b9450506020612aac87828801612906565b9350506040612abd878288016129ae565b925050606085013567ffffffffffffffff811115612ada57600080fd5b612ae68782880161295a565b91505092959194509250565b60008060408385031215612b0557600080fd5b6000612b1385828601612906565b9250506020612b248582860161291b565b9150509250929050565b60008060408385031215612b4157600080fd5b6000612b4f85828601612906565b9250506020612b60858286016129ae565b9150509250929050565b600060208284031215612b7c57600080fd5b6000612b8a84828501612930565b91505092915050565b600060208284031215612ba557600080fd5b6000612bb384828501612945565b91505092915050565b60008060408385031215612bcf57600080fd5b600083013567ffffffffffffffff811115612be957600080fd5b612bf585828601612984565b9250506020612c06858286016129ae565b9150509250929050565b600060208284031215612c2257600080fd5b6000612c30848285016129ae565b91505092915050565b6000612c458383612fbe565b60a08301905092915050565b612c5a816135e1565b82525050565b612c69816135cf565b82525050565b6000612c7a826134a8565b612c8481856134d6565b9350612c8f83613498565b8060005b83811015612cc0578151612ca78882612c39565b9750612cb2836134c9565b925050600181019050612c93565b5085935050505092915050565b612cd6816135f3565b82525050565b612ce5816135f3565b82525050565b6000612cf6826134b3565b612d0081856134e7565b9350612d10818560208601613664565b612d1981613830565b840191505092915050565b6000612d2f826134be565b612d3981856134f8565b9350612d49818560208601613664565b612d5281613830565b840191505092915050565b6000612d68826134be565b612d728185613509565b9350612d82818560208601613664565b80840191505092915050565b6000612d9b6032836134f8565b9150612da682613841565b604082019050919050565b6000612dbe6025836134f8565b9150612dc982613890565b604082019050919050565b6000612de1601c836134f8565b9150612dec826138df565b602082019050919050565b6000612e046024836134f8565b9150612e0f82613908565b604082019050919050565b6000612e276019836134f8565b9150612e3282613957565b602082019050919050565b6000612e4a6023836134f8565b9150612e5582613980565b604082019050919050565b6000612e6d6029836134f8565b9150612e78826139cf565b604082019050919050565b6000612e90602e836134f8565b9150612e9b82613a1e565b604082019050919050565b6000612eb36040836134f8565b9150612ebe82613a6d565b604082019050919050565b6000612ed6603e836134f8565b9150612ee182613abc565b604082019050919050565b6000612ef96020836134f8565b9150612f0482613b0b565b602082019050919050565b6000612f1c6023836134f8565b9150612f2782613b34565b604082019050919050565b6000612f3f6018836134f8565b9150612f4a82613b83565b602082019050919050565b6000612f626021836134f8565b9150612f6d82613bac565b604082019050919050565b6000612f856022836134f8565b9150612f9082613bfb565b604082019050919050565b6000612fa8602e836134f8565b9150612fb382613c4a565b604082019050919050565b60a082016000820151612fd4600085018261308e565b506020820151612fe76020850182612c51565b506040820151612ffa6040850182612c51565b50606082015161300d606085018261308e565b5060808201516130206080850182612ccd565b50505050565b60a08201600082015161303c600085018261308e565b50602082015161304f6020850182612c51565b5060408201516130626040850182612c51565b506060820151613075606085018261308e565b5060808201516130886080850182612ccd565b50505050565b6130978161364b565b82525050565b6130a68161364b565b82525050565b60006130b88285612d5d565b91506130c48284612d5d565b91508190509392505050565b60006020820190506130e56000830184612c60565b92915050565b60006080820190506131006000830187612c60565b61310d6020830186612c60565b61311a604083018561309d565b6131276060830184612cdc565b95945050505050565b60006080820190506131456000830187612c60565b6131526020830186612c60565b61315f604083018561309d565b81810360608301526131718184612ceb565b905095945050505050565b600060208201905081810360008301526131968184612c6f565b905092915050565b60006020820190506131b36000830184612cdc565b92915050565b600060208201905081810360008301526131d38184612d24565b905092915050565b600060208201905081810360008301526131f481612d8e565b9050919050565b6000602082019050818103600083015261321481612db1565b9050919050565b6000602082019050818103600083015261323481612dd4565b9050919050565b6000602082019050818103600083015261325481612df7565b9050919050565b6000602082019050818103600083015261327481612e1a565b9050919050565b6000602082019050818103600083015261329481612e3d565b9050919050565b600060208201905081810360008301526132b481612e60565b9050919050565b600060208201905081810360008301526132d481612e83565b9050919050565b600060208201905081810360008301526132f481612ea6565b9050919050565b6000602082019050818103600083015261331481612ec9565b9050919050565b6000602082019050818103600083015261333481612eec565b9050919050565b6000602082019050818103600083015261335481612f0f565b9050919050565b6000602082019050818103600083015261337481612f32565b9050919050565b6000602082019050818103600083015261339481612f55565b9050919050565b600060208201905081810360008301526133b481612f78565b9050919050565b600060208201905081810360008301526133d481612f9b565b9050919050565b600060a0820190506133f06000830184613026565b92915050565b600060208201905061340b600083018461309d565b92915050565b600061341b61342c565b905061342782826136c9565b919050565b6000604051905090565b600067ffffffffffffffff82111561345157613450613801565b5b61345a82613830565b9050602081019050919050565b600067ffffffffffffffff82111561348257613481613801565b5b61348b82613830565b9050602081019050919050565b6000819050602082019050919050565b600081519050919050565b600081519050919050565b600081519050919050565b6000602082019050919050565b600082825260208201905092915050565b600082825260208201905092915050565b600082825260208201905092915050565b600081905092915050565b600061351f8261364b565b915061352a8361364b565b9250827fffffffffffffffffffffffffffffffffffffffffffffffffffffffffffffffff0382111561355f5761355e613774565b5b828201905092915050565b60006135758261364b565b91506135808361364b565b9250826135905761358f6137a3565b5b828204905092915050565b60006135a68261364b565b91506135b18361364b565b9250828210156135c4576135c3613774565b5b828203905092915050565b60006135da8261362b565b9050919050565b60006135ec8261362b565b9050919050565b60008115159050919050565b60007fffffffff0000000000000000000000000000000000000000000000000000000082169050919050565b600073ffffffffffffffffffffffffffffffffffffffff82169050919050565b6000819050919050565b82818337600083830152505050565b60005b83811015613682578082015181840152602081019050613667565b83811115613691576000848401525b50505050565b600060028204905060018216806136af57607f821691505b602082108114156136c3576136c26137d2565b5b50919050565b6136d282613830565b810181811067ffffffffffffffff821117156136f1576136f0613801565b5b80604052505050565b60006137058261364b565b91507fffffffffffffffffffffffffffffffffffffffffffffffffffffffffffffffff82141561373857613737613774565b5b600182019050919050565b600061374e8261364b565b91506137598361364b565b925082613769576137686137a3565b5b828206905092915050565b7f4e487b7100000000000000000000000000000000000000000000000000000000600052601160045260246000fd5b7f4e487b7100000000000000000000000000000000000000000000000000000000600052601260045260246000fd5b7f4e487b7100000000000000000000000000000000000000000000000000000000600052602260045260246000fd5b7f4e487b7100000000000000000000000000000000000000000000000000000000600052604160045260246000fd5b6000601f19601f8301169050919050565b7f4552433732313a207472616e7366657220746f206e6f6e20455243373231526560008201527f63656976657220696d706c656d656e7465720000000000000000000000000000602082015250565b7f4552433732313a207472616e736665722066726f6d20696e636f72726563742060008201527f6f776e6572000000000000000000000000000000000000000000000000000000602082015250565b7f4552433732313a20746f6b656e20616c7265616479206d696e74656400000000600082015250565b7f4552433732313a207472616e7366657220746f20746865207a65726f2061646460008201527f7265737300000000000000000000000000000000000000000000000000000000602082015250565b7f4552433732313a20617070726f766520746f2063616c6c657200000000000000600082015250565b7f4f6e6c79206f776e65722063616e20757064617465206c697374696e6720707260008201527f6963650000000000000000000000000000000000000000000000000000000000602082015250565b7f4552433732313a2061646472657373207a65726f206973206e6f74206120766160008201527f6c6964206f776e65720000000000000000000000000000000000000000000000602082015250565b7f45524337323155524953746f726167653a2055524920736574206f66206e6f6e60008201527f6578697374656e7420746f6b656e000000000000000000000000000000000000602082015250565b7f506c65617365207375626d6974207468652061736b696e67207072696365206960008201527f6e206f7264657220746f20636f6d706c65746520746865207075726368617365602082015250565b7f4552433732313a20617070726f76652063616c6c6572206973206e6f7420746f60008201527f6b656e206f776e6572206e6f7220617070726f76656420666f7220616c6c0000602082015250565b7f4552433732313a206d696e7420746f20746865207a65726f2061646472657373600082015250565b7f486f706566756c6c792073656e64696e672074686520636f727265637420707260008201527f6963650000000000000000000000000000000000000000000000000000000000602082015250565b7f4552433732313a20696e76616c696420746f6b656e2049440000000000000000600082015250565b7f4552433732313a20617070726f76616c20746f2063757272656e74206f776e6560008201527f7200000000000000000000000000000000000000000000000000000000000000602082015250565b7f4d616b652073757265207468652070726963652069736e2774206e656761746960008201527f7665000000000000000000000000000000000000000000000000000000000000602082015250565b7f4552433732313a2063616c6c6572206973206e6f7420746f6b656e206f776e6560008201527f72206e6f7220617070726f766564000000000000000000000000000000000000602082015250565b613ca2816135cf565b8114613cad57600080fd5b50565b613cb9816135f3565b8114613cc457600080fd5b50565b613cd0816135ff565b8114613cdb57600080fd5b50565b613ce78161364b565b8114613cf257600080fd5b5056fea2646970667358221220e1087d720e704b54d23f5afc54c8fd0fd2dee37879f92f5590ed0a3142f59a7c64736f6c63430008010033",
  "linkReferences": {},
  "deployedLinkReferences": {}
}